{
  "contractName": "SubdomainRedirect",
  "abi": [
    {
      "constant": false,
      "inputs": [
        {
          "name": "name",
          "type": "string"
        },
        {
          "name": "redirect",
          "type": "string"
        }
      ],
      "name": "createRegistration",
      "outputs": [],
      "payable": true,
      "stateMutability": "payable",
      "type": "function"
    },
    {
      "constant": true,
      "inputs": [],
      "name": "registrationFee",
      "outputs": [
        {
          "name": "",
          "type": "uint256"
        }
      ],
      "payable": false,
      "stateMutability": "view",
      "type": "function"
    },
    {
      "constant": true,
      "inputs": [
        {
          "name": "index",
          "type": "uint256"
        }
      ],
      "name": "getRegistrationByIndex",
      "outputs": [
        {
          "name": "",
          "type": "string"
        },
        {
          "name": "",
          "type": "string"
        },
        {
          "name": "",
          "type": "uint256"
        },
        {
          "name": "",
          "type": "address"
        }
      ],
      "payable": false,
      "stateMutability": "view",
      "type": "function"
    },
    {
      "constant": true,
      "inputs": [
        {
          "name": "name",
          "type": "string"
        }
      ],
      "name": "getRegistrationByName",
      "outputs": [
        {
          "name": "",
          "type": "string"
        },
        {
          "name": "",
          "type": "string"
        },
        {
          "name": "",
          "type": "uint256"
        },
        {
          "name": "",
          "type": "address"
        }
      ],
      "payable": false,
      "stateMutability": "view",
      "type": "function"
    },
    {
      "constant": false,
      "inputs": [
        {
          "name": "name",
          "type": "string"
        }
      ],
      "name": "renewRegistration",
      "outputs": [],
      "payable": true,
      "stateMutability": "payable",
      "type": "function"
    },
    {
      "constant": true,
      "inputs": [],
      "name": "registrations",
      "outputs": [
        {
          "name": "",
          "type": "uint256"
        }
      ],
      "payable": false,
      "stateMutability": "view",
      "type": "function"
    },
    {
      "constant": true,
      "inputs": [],
      "name": "registrationPeriod",
      "outputs": [
        {
          "name": "",
          "type": "uint256"
        }
      ],
      "payable": false,
      "stateMutability": "view",
      "type": "function"
    },
    {
      "constant": false,
      "inputs": [
        {
          "name": "name",
          "type": "string"
        },
        {
          "name": "full",
          "type": "bool"
        }
      ],
      "name": "clearRegistration",
      "outputs": [],
      "payable": false,
      "stateMutability": "nonpayable",
      "type": "function"
    },
    {
      "constant": false,
      "inputs": [
        {
          "name": "name",
          "type": "string"
        },
        {
          "name": "redirect",
          "type": "string"
        }
      ],
      "name": "updateRegistration",
      "outputs": [],
      "payable": false,
      "stateMutability": "nonpayable",
      "type": "function"
    },
    {
      "constant": true,
      "inputs": [],
      "name": "owner",
      "outputs": [
        {
          "name": "",
          "type": "address"
        }
      ],
      "payable": false,
      "stateMutability": "view",
      "type": "function"
    },
    {
      "constant": false,
      "inputs": [
        {
          "name": "newOwner",
          "type": "address"
        }
      ],
      "name": "transferOwnership",
      "outputs": [],
      "payable": false,
      "stateMutability": "nonpayable",
      "type": "function"
    },
    {
      "anonymous": false,
      "inputs": [
        {
          "indexed": true,
          "name": "previousOwner",
          "type": "address"
        },
        {
          "indexed": true,
          "name": "newOwner",
          "type": "address"
        }
      ],
      "name": "OwnershipTransferred",
      "type": "event"
    }
  ],
  "bytecode": "0x6060604052620f42406001556000600255630208c080600355336000806101000a81548173ffffffffffffffffffffffffffffffffffffffff021916908373ffffffffffffffffffffffffffffffffffffffff16021790555061124b806100676000396000f3006060604052600436106100af576000357c0100000000000000000000000000000000000000000000000000000000900463ffffffff16806312e31fe4146100b457806314c44e09146100eb5780632a19cef0146101145780632f9161d014610256578063326b12da146103d257806346ec06e5146103f55780635939ee041461041e5780636bbf1d571461044757806371e11354146104805780638da5cb5b146104c2578063f2fde38b14610517575b600080fd5b6100e9600480803590602001908201803590602001919091929080359060200190820180359060200191909192905050610550565b005b34156100f657600080fd5b6100fe61072e565b6040518082815260200191505060405180910390f35b341561011f57600080fd5b6101356004808035906020019091905050610734565b6040518080602001806020018581526020018473ffffffffffffffffffffffffffffffffffffffff1673ffffffffffffffffffffffffffffffffffffffff168152602001838103835287818151815260200191508051906020019080838360005b838110156101b1578082015181840152602081019050610196565b50505050905090810190601f1680156101de5780820380516001836020036101000a031916815260200191505b50838103825286818151815260200191508051906020019080838360005b838110156102175780820151818401526020810190506101fc565b50505050905090810190601f1680156102445780820380516001836020036101000a031916815260200191505b50965050505050505060405180910390f35b341561026157600080fd5b6102b1600480803590602001908201803590602001908080601f01602080910402602001604051908101604052809392919081815260200183838082843782019150505050505091905050610a33565b6040518080602001806020018581526020018473ffffffffffffffffffffffffffffffffffffffff1673ffffffffffffffffffffffffffffffffffffffff168152602001838103835287818151815260200191508051906020019080838360005b8381101561032d578082015181840152602081019050610312565b50505050905090810190601f16801561035a5780820380516001836020036101000a031916815260200191505b50838103825286818151815260200191508051906020019080838360005b83811015610393578082015181840152602081019050610378565b50505050905090810190601f1680156103c05780820380516001836020036101000a031916815260200191505b50965050505050505060405180910390f35b6103f360048080359060200190820180359060200191909192905050610c5e565b005b341561040057600080fd5b610408610d23565b6040518082815260200191505060405180910390f35b341561042957600080fd5b610431610d29565b6040518082815260200191505060405180910390f35b341561045257600080fd5b61047e600480803590602001908201803590602001919091929080351515906020019091905050610d2f565b005b341561048b57600080fd5b6104c0600480803590602001908201803590602001919091929080359060200190820180359060200191909192905050610e79565b005b34156104cd57600080fd5b6104d5610f6c565b604051808273ffffffffffffffffffffffffffffffffffffffff1673ffffffffffffffffffffffffffffffffffffffff16815260200191505060405180910390f35b341561052257600080fd5b61054e600480803573ffffffffffffffffffffffffffffffffffffffff16906020019091905050610f91565b005b60015434101580156106085750600073ffffffffffffffffffffffffffffffffffffffff166004858560405180838380828437820191505092505050908152602001604051809103902060010160009054906101000a900473ffffffffffffffffffffffffffffffffffffffff1673ffffffffffffffffffffffffffffffffffffffff1614806106075750426004858560405180838380828437820191505092505050908152602001604051809103902060020154105b5b80156106175750600082829050115b151561062257600080fd5b81816004868660405180838380828437820191505092505050908152602001604051809103902060000191906106599291906110e6565b50336004858560405180838380828437820191505092505050908152602001604051809103902060010160006101000a81548173ffffffffffffffffffffffffffffffffffffffff021916908373ffffffffffffffffffffffffffffffffffffffff16021790555060035442016004858560405180838380828437820191505092505050908152602001604051809103902060020181905550838360056000600254815260200190815260200160002091906107169291906110e6565b50600160026000828254019250508190555050505050565b60015481565b61073c611166565b610744611166565b60008061074f611166565b60008610158015610761575060025486105b151561076c57600080fd5b600560008781526020019081526020016000208054600181600116156101000203166002900480601f0160208091040260200160405190810160405280929190818152602001828054600181600116156101000203166002900480156108135780601f106107e857610100808354040283529160200191610813565b820191906000526020600020905b8154815290600101906020018083116107f657829003601f168201915b50505050509050806004826040518082805190602001908083835b602083101515610853578051825260208201915060208101905060208303925061082e565b6001836020036101000a03801982511681845116808217855250505050505090500191505090815260200160405180910390206000016004836040518082805190602001908083835b6020831015156108c1578051825260208201915060208101905060208303925061089c565b6001836020036101000a0380198251168184511680821785525050505050509050019150509081526020016040518091039020600201546004846040518082805190602001908083835b602083101515610930578051825260208201915060208101905060208303925061090b565b6001836020036101000a038019825116818451168082178552505050505050905001915050908152602001604051809103902060010160009054906101000a900473ffffffffffffffffffffffffffffffffffffffff16828054600181600116156101000203166002900480601f016020809104026020016040519081016040528092919081815260200182805460018160011615610100020316600290048015610a1c5780601f106109f157610100808354040283529160200191610a1c565b820191906000526020600020905b8154815290600101906020018083116109ff57829003601f168201915b505050505092509450945094509450509193509193565b610a3b611166565b610a43611166565b600080846004866040518082805190602001908083835b602083101515610a7f5780518252602082019150602081019050602083039250610a5a565b6001836020036101000a03801982511681845116808217855250505050505090500191505090815260200160405180910390206000016004876040518082805190602001908083835b602083101515610aed5780518252602082019150602081019050602083039250610ac8565b6001836020036101000a0380198251168184511680821785525050505050509050019150509081526020016040518091039020600201546004886040518082805190602001908083835b602083101515610b5c5780518252602082019150602081019050602083039250610b37565b6001836020036101000a038019825116818451168082178552505050505050905001915050908152602001604051809103902060010160009054906101000a900473ffffffffffffffffffffffffffffffffffffffff16828054600181600116156101000203166002900480601f016020809104026020016040519081016040528092919081815260200182805460018160011615610100020316600290048015610c485780601f10610c1d57610100808354040283529160200191610c48565b820191906000526020600020905b815481529060010190602001808311610c2b57829003601f168201915b5050505050925093509350935093509193509193565b6001543410158015610ce357503373ffffffffffffffffffffffffffffffffffffffff166004838360405180838380828437820191505092505050908152602001604051809103902060010160009054906101000a900473ffffffffffffffffffffffffffffffffffffffff1673ffffffffffffffffffffffffffffffffffffffff16145b1515610cee57600080fd5b600354420160048383604051808383808284378201915050925050509081526020016040518091039020600201819055505050565b60025481565b60035481565b6000809054906101000a900473ffffffffffffffffffffffffffffffffffffffff1673ffffffffffffffffffffffffffffffffffffffff163373ffffffffffffffffffffffffffffffffffffffff16141515610d8a57600080fd5b6020604051908101604052806000815250600484846040518083838082843782019150509250505090815260200160405180910390206000019080519060200190610dd692919061117a565b508015610e745760006004848460405180838380828437820191505092505050908152602001604051809103902060010160006101000a81548173ffffffffffffffffffffffffffffffffffffffff021916908373ffffffffffffffffffffffffffffffffffffffff160217905550600060048484604051808383808284378201915050925050509081526020016040518091039020600201819055505b505050565b3373ffffffffffffffffffffffffffffffffffffffff166004858560405180838380828437820191505092505050908152602001604051809103902060010160009054906101000a900473ffffffffffffffffffffffffffffffffffffffff1673ffffffffffffffffffffffffffffffffffffffff16148015610f235750426004858560405180838380828437820191505092505050908152602001604051809103902060020154115b1515610f2e57600080fd5b8181600486866040518083838082843782019150509250505090815260200160405180910390206000019190610f659291906110e6565b5050505050565b6000809054906101000a900473ffffffffffffffffffffffffffffffffffffffff1681565b6000809054906101000a900473ffffffffffffffffffffffffffffffffffffffff1673ffffffffffffffffffffffffffffffffffffffff163373ffffffffffffffffffffffffffffffffffffffff16141515610fec57600080fd5b600073ffffffffffffffffffffffffffffffffffffffff168173ffffffffffffffffffffffffffffffffffffffff161415151561102857600080fd5b8073ffffffffffffffffffffffffffffffffffffffff166000809054906101000a900473ffffffffffffffffffffffffffffffffffffffff1673ffffffffffffffffffffffffffffffffffffffff167f8be0079c531659141344cd1fd0a4f28419497f9722a3daafe3b4186f6b6457e060405160405180910390a3806000806101000a81548173ffffffffffffffffffffffffffffffffffffffff021916908373ffffffffffffffffffffffffffffffffffffffff16021790555050565b828054600181600116156101000203166002900490600052602060002090601f016020900481019282601f1061112757803560ff1916838001178555611155565b82800160010185558215611155579182015b82811115611154578235825591602001919060010190611139565b5b50905061116291906111fa565b5090565b602060405190810160405280600081525090565b828054600181600116156101000203166002900490600052602060002090601f016020900481019282601f106111bb57805160ff19168380011785556111e9565b828001600101855582156111e9579182015b828111156111e85782518255916020019190600101906111cd565b5b5090506111f691906111fa565b5090565b61121c91905b80821115611218576000816000905550600101611200565b5090565b905600a165627a7a7230582074611a740e97b5a1110f8443b4f48410ee20522806daa8a21ee029b4d52884df0029",
  "source": "pragma solidity ^0.4.18;\n\nimport 'zeppelin-solidity/contracts/ownership/Ownable.sol';\n\ncontract SubdomainRedirect is Ownable {\n \n  struct SubdomainEntry {\n    string redirect; // redirect url\n    address owner; // entry owner\n    uint registeredUntil; // timestamp until this registration is valid\n  }\n\n  uint public registrationFee = 1000000;\n  uint public registrations = 0;\n  uint public registrationPeriod = 1 years + 30 days;\n  mapping (string => SubdomainEntry) entries;\n  mapping (uint => string) names;\n\n  function createRegistration(string name, string redirect) external payable {\n    require(\n      msg.value >= registrationFee &&\n      (entries[name].owner == address(0) || entries[name].registeredUntil < now) &&\n      bytes(redirect).length > 0\n    );\n\n    entries[name].redirect = redirect;\n    entries[name].owner = msg.sender;\n    entries[name].registeredUntil = now + registrationPeriod;\n    names[registrations] = name;\n    registrations += 1;\n  }\n\n  function renewRegistration(string name) external payable {\n    require(\n      msg.value >= registrationFee &&\n      entries[name].owner == msg.sender\n    );\n\n    entries[name].registeredUntil = now + registrationPeriod;\n  }\n\n  function updateRegistration(string name, string redirect) external {\n    require(\n      entries[name].owner == msg.sender &&\n      entries[name].registeredUntil > now\n    );\n\n    entries[name].redirect = redirect;\n  }\n\n  function getRegistrationByIndex(uint index) public view returns (string, string, uint, address) {\n    require(\n      index >= 0 && index < registrations\n    );\n\n    string memory name = names[index];\n    return (name, entries[name].redirect, entries[name].registeredUntil, entries[name].owner);\n  }\n\n  function getRegistrationByName(string name) public view returns (string, string, uint, address) {    \n    return (name, entries[name].redirect, entries[name].registeredUntil, entries[name].owner);\n  }\n\n  function clearRegistration(string name, bool full) onlyOwner external {\n    entries[name].redirect = \"\";\n\n    if (full) {\n      entries[name].owner = address(0);\n      entries[name].registeredUntil = 0;\n    }\n  }\n\n}",
  "sourcePath": "/home/stefan/00_bloqs/scenario02/contract/contracts/SubdomainRedirect.sol",
  "compiler": {
    "name": "solc",
    "version": "0.4.18+commit.9cf6e910.Emscripten.clang"
  },
  "schemaVersion": "1.0.1",
  "updatedAt": "2018-01-23T10:19:54.885Z"
}